:020000040800F2
:10000000600600200D020008490200084B020008AB
:100010004D0200084F0200085102000800000000D5
:100020000000000000000000000000005302000873
:10003000550200080000000057020008590200089D
:100040005B0200085B0200085B0200085B0200081C
:100050005B0200085B0200085B0200085B0200080C
:100060005B0200085B0200085B0200085B020008FC
:100070005B0200085B0200085B0200085B020008EC
:100080005B0200085B0200085B0200085B020008DC
:100090005B0200085B0200085B0200085B020008CC
:1000A0005B0200085B0200085B0200085B020008BC
:1000B0005B0200085B0200085B0200085B020008AC
:1000C0005B0200085B0200085B0200085B0200089C
:1000D0005B0200085B0200085B0200085B0200088C
:1000E0005B0200085B0200085B0200085B0200087C
:1000F0005B0200085B0200085B0200085B0200086C
:100100005B0200085B0200085B0200085B0200085B
:100110005B0200085B0200085B0200085B0200084B
:100120005B0200085B0200085B0200085B0200083B
:100130005B0200085B0200085B0200085B0200082B
:100140005B0200085B0200085B0200085B0200081B
:100150005B0200085B0200085B0200085B0200080B
:100160005B0200085B0200085B0200085B020008FB
:100170005B0200085B0200085B0200080000000050
:100180005B0200085B02000800F002F800F02EF8A5
:100190000AA090E8000C82448344AAF10107DA45E2
:1001A00001D100F023F8AFF2090EBAE80F0013F006
:1001B000010F18BFFB1A43F001031847340A00006F
:1001C000440A00000023002400250026103A28BF1E
:1001D00078C1FBD8520728BF30C148BF0B607047B9
:1001E0001FB500F000FD1FBD10B510BD00F053F8A5
:1001F0001146FFF7F5FF00F0A9FC00F071F803B419
:10020000FFF7F2FF03BC00F079F800001648174929
:10021000174B99423CBF50F8042B41F8042BF8D3FC
:1002200014494FF000028B4238BF43F8042BFAD335
:10023000DFF84400016841F470010160BFF34F8FA3
:10024000BFF36F8F0D480047FEE7FEE7FEE7FEE7CE
:10025000FEE7FEE7FEE7FEE7FEE7FEE7084809499E
:10026000094A0A4B70470000000C000800000020FB
:10027000000000206006002088ED00E089010008F1
:100280006000002060060020600200206002002064
:10029000704770477047754600F02CF8AE46050071
:1002A0006946534620F00700854618B020B5FFF791
:1002B000D5FFBDE820404FF000064FF000074FF09B
:1002C00000084FF0000B21F00701AC46ACE8C00974
:1002D000ACE8C009ACE8C009ACE8C0098D4670477D
:1002E00010B50446AFF300802046BDE81040FFF78C
:1002F00086BF000000487047000000200149182018
:10030000ABBEFEE72600020070470000F8B524A748
:100310003F68009700253EE0002039E0002600E01D
:10032000761C46F67817BE42FADB1DF80070C7F35C
:10033000C0031DF80070C7F380011DF80070C7F3FB
:1003400040041DF8007007F00102164F3F684FF699
:10035000337C07EA0C07DFF84CC0CCF80070674626
:100360003F6847EA8307CCF8007067463F6847EA72
:10037000C107CCF8007067463F6847EA8417CCF89D
:10038000007067463F6847EAC217CCF80070401C0F
:100390000428C3DB6D1CB5F5007FBDDBF8BD000094
:1003A000090A060514040048F8B524A73F68009719
:1003B00000253EE0002039E0002600E0761C46F6ED
:1003C0007817BE42FADB1DF80070C7F3C0031DF8B2
:1003D0000070C7F380011DF80070C7F340041DF8DA
:1003E000007007F00102164F3F684FF6337C07EAB2
:1003F0000C07DFF84CC0CCF8007067463F6847EA4E
:100400008307CCF8007067463F6847EAC107CCF81D
:10041000007067463F6847EA8417CCF8007067466B
:100420003F6847EAC217CCF80070401C0428C3DBC1
:100430006D1CB5F5007FBDDBF8BD000005060A099F
:1004400014040048FCB50FF2940CDCE9007CCDE903
:10045000007C00253EE0002039E0002600E0761C0C
:1004600043F20C07BE42FADB1DF80070C7F3C0046C
:100470001DF80070C7F380011DF80070C7F340033A
:100480001DF8007007F00102164F3F684FF6337CED
:1004900007EA0C07DFF84CC0CCF8007067463F68ED
:1004A00047EA8407CCF8007067463F6847EAC1070F
:1004B000CCF8007067463F6847EA8317CCF80070B5
:1004C00067463F6847EAC217CCF80070401C08280E
:1004D000C3DB6D1CB5F5007FBDDBFCBD09080A025E
:1004E0000604050114040048FCB50FF2940CDCE985
:1004F000007CCDE9007C00253DE0002038E00026AE
:1005000000E0761C204FBE42FBDB1DF80070C7F3F5
:10051000C0041DF80070C7F380011DF80070C7F318
:1005200040031DF8007007F00102184F3F684FF6B6
:10053000337C07EA0C07DFF854C0CCF8007067463C
:100540003F6847EA8407CCF8007067463F6847EA8F
:10055000C107CCF8007067463F6847EA8317CCF8BC
:10056000007067463F6847EAC217CCF80070401C2D
:100570000828C4DB6D1CB5F5007FBEDBFCBD0000A8
:1005800001050406020A0809A086010014040048B7
:10059000002000BF0B49096801F004010029F9D1CE
:1005A000002006E0002207490C3141F82020411CC0
:1005B000C8B20F28F6DD0349096841F00401014A79
:1005C00011607047082400402F48806D00F0805073
:1005D00028B92D48806D40F080502B4988652A4805
:1005E000806D2A48006800F4807060B92748006870
:1005F00040F480702549086000BF2448006800F47A
:1006000080700028F9D020489030006820F0050064
:100610001D49C1F890000846D0F8900040F48030A1
:10062000C1F890000846D0F8900020F48030C1F85E
:10063000900007E014489030006840F00100124933
:10064000C1F8900010489030006800F002000028C7
:10065000F0D00D489030006820F440700A49C1F88D
:1006600090000846D0F8900040F48070C1F89000E7
:100670000846806D20F0805088650846806D40F403
:100680000070886570470000001002400070004054
:100690003A48006820F004003849086008460068BD
:1006A00040F0040008600846006820F00800086078
:1006B0000846006840F0080008600846006820F01E
:1006C000100008600846006820F002000860084634
:1006D000006820F0200008600846006820F0400014
:1006E00008600846006840F040000860084600685E
:1006F00020F4807008600846006820F080000860E0
:100700000846006820F0010008600846006840F0D4
:1007100001000860081D006820F07000091D0860D5
:100720000846006840F0700008600846006820F441
:10073000E05008600846006840F4E0500860084651
:10074000006820F4604008600846006840F480407B
:1007500008600846006820F44030086008460068D9
:1007600020F4701008600846006840F470100860BB
:100770000846006820F07070086070470024004050
:1007800000B5FFF721FF00F005F8FFF781FFFFF745
:10079000FFFE00BD6548C06C40F001006349C864BD
:1007A0000846C06C40F00200C8640846C06C40F0C7
:1007B0000400C8640846C06C40F00800C8644FF0EC
:1007C000904000685A4908404FF090410860084640
:1007D0000068584908434FF0904108605648006847
:1007E000564908405449086008460068544908437F
:1007F000514908605348006853490840514908600E
:1008000008460068514908434E490860504800684E
:1008100080B24F490860084600684E4908434C4979
:1008200008604FF09040006A20F07F404FF0904108
:1008300008620846406A484908404FF090414862C3
:100840000846006A40F03B4008620846406A434957
:1008500008434FF09041486237482030006800F06C
:10086000FF203549203108603348406A4FF60F7148
:1008700008403149486230482030006840F0BB10E1
:100880002D49203108602C48406A354908432A49DF
:1008900048622C4820300068C0F30B002949203101
:1008A00008602848406A20F00F0126484162254828
:1008B000203000682B490843224920310860214834
:1008C000406A40F00B011F48416221482030006817
:1008D0001F49203108601E48406A00211C484162BF
:1008E0001B48203000681A49203108601848406AC7
:1008F00040F0BB31164841624FF09040006840F62E
:10090000FF4188434FF0904108600846C06840F6B8
:10091000FF4188434FF09041C8600846C06840F6E8
:10092000AA0108434FF09041C86070470010024090
:10093000FF0FC03F00A02A8000040048F0F0F30041
:100940000A0A08AA000800483F00FCFF80AA02002B
:10095000000C00480000AAAA00F0FF0FBB0B00B07B
:10096000B000BBBB00B0BBBB1548C06C40F0020080
:100970001349C864134800684FF2F00188431149D5
:1009800008600846006845F2500108430D490860B8
:10099000081D00684FF6337108400A49091D0860B8
:1009A00008460068086007480C3000684FF2F00104
:1009B000884304490C3108600846006808607047A5
:1009C00000100240000400485E49096821F0070158
:1009D0005C4A11601146096841F0020111605A49F0
:1009E000096841F48071584A116000BF564909688E
:1009F00001F480610029F9D010205349496821F0A1
:100A0000F851514A51601146496841EA006151600C
:100A10001146096821F08071116000BF4A490968D8
:100A200001F00071B1F1007FF8D04749C96821F0A9
:100A30000301454AD1601146C96841F00201D16005
:100A40001146C96821F4FE4141F4A051D16011461C
:100A5000C96821F0700141F01001D1601146C968E8
:100A600021F0C061D1601146C96841F08071D16048
:100A70001146096841F08071116000BF3249096870
:100A800001F000710029F9D02F49896821F0030194
:100A90002D4A91601146896841F00301916000BFC1
:100AA0002949896801F00C010C29F9D12649896886
:100AB00021F0F001244A91601146896821F4E06137
:100AC00091601146896821F460519160114609686E
:100AD00021F08061116000BF1B49096801F080614D
:100AE000B1F1806FF8D01849096921F4FE41164A26
:100AF00011611146096941F4C0511161114609693A
:100B000041F4003111611146096941F480311161EC
:100B10001146096841F08061116000BF0A49096807
:100B200001F080610029F9D007498831096821F472
:100B30004001054AC2F888101146096E41F40011BF
:100B4000116670470020024000100240FFF73CFF92
:100B5000FFF70AFFFFF714FEFFF71AFD42E04FF020
:100B60009040006900F0010048B1FFF76BFC00BF46
:100B70004FF09040006900F001000028F8D14FF0DC
:100B80009040006900F00200022809D1FFF7ACFC98
:100B900000BF4FF09040006900F002000028F8D13B
:100BA0004FF09040006900F00400042809D1FFF7DD
:100BB000FBFB00BF4FF09040006900F004000028EC
:100BC000F8D14FF09040006900F02000202809D1B2
:100BD000FFF79CFB00BF4FF09040006900F0200041
:100BE0000028F8D1BBE74FF04070E1EE100A7047E3
:100BF000000C00080000002060060000C40100088E
:040000050800018965
:00000001FF
